{
  "_format": "hh-sol-artifact-1",
  "contractName": "MyTokenStaking",
  "sourceName": "contracts/MyTokenStaking.sol",
  "abi": [
    {
      "inputs": [
        {
          "internalType": "address",
          "name": "token",
          "type": "address"
        },
        {
          "internalType": "uint8",
          "name": "annualInterestPercent",
          "type": "uint8"
        },
        {
          "internalType": "uint256",
          "name": "maxDuration",
          "type": "uint256"
        },
        {
          "internalType": "address",
          "name": "admin",
          "type": "address"
        }
      ],
      "stateMutability": "nonpayable",
      "type": "constructor"
    },
    {
      "inputs": [],
      "name": "MyTokenStaking_AddressZeroNotAllowed",
      "type": "error"
    },
    {
      "inputs": [],
      "name": "MyTokenStaking_CannotStakeZero",
      "type": "error"
    },
    {
      "inputs": [],
      "name": "MyTokenStaking_DurationTooLong",
      "type": "error"
    },
    {
      "inputs": [],
      "name": "MyTokenStaking_DurationTooShort",
      "type": "error"
    },
    {
      "inputs": [],
      "name": "MyTokenStaking_InsufficientRewards",
      "type": "error"
    },
    {
      "inputs": [],
      "name": "MyTokenStaking_NoRewardsToClaim",
      "type": "error"
    },
    {
      "inputs": [],
      "name": "MyTokenStaking_RewardClaimFailed",
      "type": "error"
    },
    {
      "inputs": [],
      "name": "MyTokenStaking_RewardsCannotBeZero",
      "type": "error"
    },
    {
      "inputs": [
        {
          "internalType": "uint256",
          "name": "rewards",
          "type": "uint256"
        }
      ],
      "name": "MyTokenStaking_RewardsNotClaimedYet",
      "type": "error"
    },
    {
      "inputs": [],
      "name": "MyTokenStaking_StakingFailed",
      "type": "error"
    },
    {
      "inputs": [],
      "name": "MyTokenStaking_UnstakeFailed",
      "type": "error"
    },
    {
      "inputs": [
        {
          "internalType": "uint256",
          "name": "timeLeft",
          "type": "uint256"
        }
      ],
      "name": "MyTokenStaking_UnstakeTooEarly",
      "type": "error"
    },
    {
      "anonymous": false,
      "inputs": [
        {
          "indexed": true,
          "internalType": "address",
          "name": "staker",
          "type": "address"
        },
        {
          "indexed": true,
          "internalType": "uint256",
          "name": "amount",
          "type": "uint256"
        }
      ],
      "name": "RewardClaim",
      "type": "event"
    },
    {
      "anonymous": false,
      "inputs": [
        {
          "indexed": true,
          "internalType": "address",
          "name": "staker",
          "type": "address"
        },
        {
          "indexed": true,
          "internalType": "uint256",
          "name": "amount",
          "type": "uint256"
        }
      ],
      "name": "Stake",
      "type": "event"
    },
    {
      "anonymous": false,
      "inputs": [
        {
          "indexed": true,
          "internalType": "address",
          "name": "staker",
          "type": "address"
        },
        {
          "indexed": true,
          "internalType": "uint256",
          "name": "amount",
          "type": "uint256"
        }
      ],
      "name": "Unstake",
      "type": "event"
    },
    {
      "inputs": [
        {
          "internalType": "address",
          "name": "_address",
          "type": "address"
        }
      ],
      "name": "calculateRewards",
      "outputs": [
        {
          "internalType": "uint256",
          "name": "",
          "type": "uint256"
        }
      ],
      "stateMutability": "view",
      "type": "function"
    },
    {
      "inputs": [],
      "name": "claimReward",
      "outputs": [
        {
          "internalType": "bool",
          "name": "success",
          "type": "bool"
        }
      ],
      "stateMutability": "nonpayable",
      "type": "function"
    },
    {
      "inputs": [
        {
          "internalType": "uint256",
          "name": "amount",
          "type": "uint256"
        },
        {
          "internalType": "uint256",
          "name": "stakeDuration",
          "type": "uint256"
        }
      ],
      "name": "stake",
      "outputs": [
        {
          "internalType": "bool",
          "name": "success",
          "type": "bool"
        }
      ],
      "stateMutability": "payable",
      "type": "function"
    },
    {
      "inputs": [],
      "name": "unstake",
      "outputs": [
        {
          "internalType": "bool",
          "name": "success",
          "type": "bool"
        }
      ],
      "stateMutability": "nonpayable",
      "type": "function"
    }
  ],
  "bytecode": "0x60e06040523480156200001157600080fd5b50604051620013ef380380620013ef8339818101604052810190620000379190620001e6565b8373ffffffffffffffffffffffffffffffffffffffff1660c08173ffffffffffffffffffffffffffffffffffffffff16815250508260ff1660a08160ff16815250506301e133806012600a6200008e9190620003db565b8460ff166200009e91906200042c565b620000aa9190620004a6565b608081815250508160038190555080600460006101000a81548173ffffffffffffffffffffffffffffffffffffffff021916908373ffffffffffffffffffffffffffffffffffffffff16021790555050505050620004de565b600080fd5b600073ffffffffffffffffffffffffffffffffffffffff82169050919050565b6000620001358262000108565b9050919050565b620001478162000128565b81146200015357600080fd5b50565b60008151905062000167816200013c565b92915050565b600060ff82169050919050565b62000185816200016d565b81146200019157600080fd5b50565b600081519050620001a5816200017a565b92915050565b6000819050919050565b620001c081620001ab565b8114620001cc57600080fd5b50565b600081519050620001e081620001b5565b92915050565b6000806000806080858703121562000203576200020262000103565b5b6000620002138782880162000156565b9450506020620002268782880162000194565b93505060406200023987828801620001cf565b92505060606200024c8782880162000156565b91505092959194509250565b7f4e487b7100000000000000000000000000000000000000000000000000000000600052601160045260246000fd5b60008160011c9050919050565b6000808291508390505b6001851115620002e657808604811115620002be57620002bd62000258565b5b6001851615620002ce5780820291505b8081029050620002de8562000287565b94506200029e565b94509492505050565b600082620003015760019050620003d4565b81620003115760009050620003d4565b81600181146200032a576002811462000335576200036b565b6001915050620003d4565b60ff8411156200034a576200034962000258565b5b8360020a91508482111562000364576200036362000258565b5b50620003d4565b5060208310610133831016604e8410600b8410161715620003a55782820a9050838111156200039f576200039e62000258565b5b620003d4565b620003b4848484600162000294565b92509050818404811115620003ce57620003cd62000258565b5b81810290505b9392505050565b6000620003e882620001ab565b9150620003f5836200016d565b9250620004247fffffffffffffffffffffffffffffffffffffffffffffffffffffffffffffffff8484620002ef565b905092915050565b60006200043982620001ab565b91506200044683620001ab565b92508282026200045681620001ab565b9150828204841483151762000470576200046f62000258565b5b5092915050565b7f4e487b7100000000000000000000000000000000000000000000000000000000600052601260045260246000fd5b6000620004b382620001ab565b9150620004c083620001ab565b925082620004d357620004d262000477565b5b828204905092915050565b60805160a05160c051610ed662000519600039600081816102650152818161058b0152610822015260005050600061047b0152610ed66000f3fe60806040526004361061003f5760003560e01c80632def66201461004457806364ab86751461006f5780637b0472f0146100ac578063b88a802f146100dc575b600080fd5b34801561005057600080fd5b50610059610107565b60405161006691906109c9565b60405180910390f35b34801561007b57600080fd5b5061009660048036038101906100919190610a47565b610389565b6040516100a39190610a8d565b60405180910390f35b6100c660048036038101906100c19190610ad4565b6104cc565b6040516100d391906109c9565b60405180910390f35b3480156100e857600080fd5b506100f1610762565b6040516100fe91906109c9565b60405180910390f35b600061011233610945565b60008060003373ffffffffffffffffffffffffffffffffffffffff1673ffffffffffffffffffffffffffffffffffffffff168152602001908152602001600020905042816002015411156101ac574281600201546101709190610b43565b6040517f6542e7160000000000000000000000000000000000000000000000000000000081526004016101a39190610a8d565b60405180910390fd5b60006101b733610389565b905060008111156101ff57806040517f8e0259e60000000000000000000000000000000000000000000000000000000081526004016101f69190610a8d565b60405180910390fd5b60008260000154905060008360040160006101000a81548160ff021916908315150217905550600083600001819055506000836001018190555060008360020181905550600083600301819055508060015461025b9190610b43565b60018190555060007f000000000000000000000000000000000000000000000000000000000000000073ffffffffffffffffffffffffffffffffffffffff1663a9059cbb33846040518363ffffffff1660e01b81526004016102be929190610b86565b6020604051808303816000875af11580156102dd573d6000803e3d6000fd5b505050506040513d601f19601f820116820180604052508101906103019190610bdb565b90508061033a576040517f8fcbb10400000000000000000000000000000000000000000000000000000000815260040160405180910390fd5b60019450813373ffffffffffffffffffffffffffffffffffffffff167f85082129d87b2fe11527cb1b3b7a520aeb5aa6913f88a3d8757fe40d1db02fdd60405160405180910390a35050505090565b6000806000808473ffffffffffffffffffffffffffffffffffffffff1673ffffffffffffffffffffffffffffffffffffffff1681526020019081526020016000206040518060a0016040529081600082015481526020016001820154815260200160028201548152602001600382015481526020016004820160009054906101000a900460ff1615151515815250509050806080015161042d5760009150506104c7565b60004282604001511015610456578160600151826040015161044f9190610b43565b9050610469565b8160600151426104669190610b43565b90505b60006012600a6104799190610d48565b7f00000000000000000000000000000000000000000000000000000000000000008385600001516104aa9190610d93565b6104b49190610d93565b6104be9190610e04565b90508093505050505b919050565b60006104d733610945565b60008303610511576040517fd6ad4e3600000000000000000000000000000000000000000000000000000000815260040160405180910390fd5b6000820361054b576040517f6ed41de600000000000000000000000000000000000000000000000000000000815260040160405180910390fd5b600354821115610587576040517fd9e6bf7700000000000000000000000000000000000000000000000000000000815260040160405180910390fd5b60007f000000000000000000000000000000000000000000000000000000000000000073ffffffffffffffffffffffffffffffffffffffff166323b872dd3330876040518463ffffffff1660e01b81526004016105e693929190610e35565b6020604051808303816000875af1158015610605573d6000803e3d6000fd5b505050506040513d601f19601f820116820180604052508101906106299190610bdb565b905080610662576040517faa7d91c500000000000000000000000000000000000000000000000000000000815260040160405180910390fd5b60008060003373ffffffffffffffffffffffffffffffffffffffff1673ffffffffffffffffffffffffffffffffffffffff16815260200190815260200160002090508060040160009054906101000a900460ff166106fe5760018160040160006101000a81548160ff02191690831515021790555042816001018190555042816003018190555083426106f59190610e6c565b81600201819055505b8460015461070c9190610e6c565b60018190555060019250843373ffffffffffffffffffffffffffffffffffffffff167febedb8b3c678666e7f36970bc8f57abf6d8fa2e828c0da91ea5b75bf68ed101a60405160405180910390a3505092915050565b600061076d33610945565b600061077833610389565b9050600081036107b4576040517f4c18712b00000000000000000000000000000000000000000000000000000000815260040160405180910390fd5b60008060003373ffffffffffffffffffffffffffffffffffffffff1673ffffffffffffffffffffffffffffffffffffffff168152602001908152602001600020905042816002015410156108105742816003018190555061081e565b806002015481600301819055505b60007f000000000000000000000000000000000000000000000000000000000000000073ffffffffffffffffffffffffffffffffffffffff1663a9059cbb33856040518363ffffffff1660e01b815260040161087b929190610b86565b6020604051808303816000875af115801561089a573d6000803e3d6000fd5b505050506040513d601f19601f820116820180604052508101906108be9190610bdb565b9050806108f7576040517f132e56ba00000000000000000000000000000000000000000000000000000000815260040160405180910390fd5b60019350823373ffffffffffffffffffffffffffffffffffffffff167f75690555e75b04e280e646889defdcbefd8401507e5394d1173fd84290944c2960405160405180910390a350505090565b600073ffffffffffffffffffffffffffffffffffffffff168173ffffffffffffffffffffffffffffffffffffffff16036109ab576040517f21a0db1300000000000000000000000000000000000000000000000000000000815260040160405180910390fd5b50565b60008115159050919050565b6109c3816109ae565b82525050565b60006020820190506109de60008301846109ba565b92915050565b600080fd5b600073ffffffffffffffffffffffffffffffffffffffff82169050919050565b6000610a14826109e9565b9050919050565b610a2481610a09565b8114610a2f57600080fd5b50565b600081359050610a4181610a1b565b92915050565b600060208284031215610a5d57610a5c6109e4565b5b6000610a6b84828501610a32565b91505092915050565b6000819050919050565b610a8781610a74565b82525050565b6000602082019050610aa26000830184610a7e565b92915050565b610ab181610a74565b8114610abc57600080fd5b50565b600081359050610ace81610aa8565b92915050565b60008060408385031215610aeb57610aea6109e4565b5b6000610af985828601610abf565b9250506020610b0a85828601610abf565b9150509250929050565b7f4e487b7100000000000000000000000000000000000000000000000000000000600052601160045260246000fd5b6000610b4e82610a74565b9150610b5983610a74565b9250828203905081811115610b7157610b70610b14565b5b92915050565b610b8081610a09565b82525050565b6000604082019050610b9b6000830185610b77565b610ba86020830184610a7e565b9392505050565b610bb8816109ae565b8114610bc357600080fd5b50565b600081519050610bd581610baf565b92915050565b600060208284031215610bf157610bf06109e4565b5b6000610bff84828501610bc6565b91505092915050565b60008160011c9050919050565b6000808291508390505b6001851115610c5f57808604811115610c3b57610c3a610b14565b5b6001851615610c4a5780820291505b8081029050610c5885610c08565b9450610c1f565b94509492505050565b600082610c785760019050610d34565b81610c865760009050610d34565b8160018114610c9c5760028114610ca657610cd5565b6001915050610d34565b60ff841115610cb857610cb7610b14565b5b8360020a915084821115610ccf57610cce610b14565b5b50610d34565b5060208310610133831016604e8410600b8410161715610d0a5782820a905083811115610d0557610d04610b14565b5b610d34565b610d178484846001610c15565b92509050818404811115610d2e57610d2d610b14565b5b81810290505b9392505050565b600060ff82169050919050565b6000610d5382610a74565b9150610d5e83610d3b565b9250610d8b7fffffffffffffffffffffffffffffffffffffffffffffffffffffffffffffffff8484610c68565b905092915050565b6000610d9e82610a74565b9150610da983610a74565b9250828202610db781610a74565b91508282048414831517610dce57610dcd610b14565b5b5092915050565b7f4e487b7100000000000000000000000000000000000000000000000000000000600052601260045260246000fd5b6000610e0f82610a74565b9150610e1a83610a74565b925082610e2a57610e29610dd5565b5b828204905092915050565b6000606082019050610e4a6000830186610b77565b610e576020830185610b77565b610e646040830184610a7e565b949350505050565b6000610e7782610a74565b9150610e8283610a74565b9250828201905080821115610e9a57610e99610b14565b5b9291505056fea26469706673582212203b78ff4fdb37929a40da607fe204c42cda9190ea67333490bb65f4f52888a22f64736f6c63430008180033",
  "linkReferences": {},
  "deployedLinkReferences": {}
}