{
  "contracts/MyTokenStaking.sol": {
    "MyTokenStaking": {
      "abi": [
        {
          "inputs": [
            {
              "internalType": "address",
              "name": "token",
              "type": "address"
            },
            {
              "internalType": "uint8",
              "name": "annualInterestPercent",
              "type": "uint8"
            },
            {
              "internalType": "uint256",
              "name": "maxDuration",
              "type": "uint256"
            },
            {
              "internalType": "address",
              "name": "admin",
              "type": "address"
            }
          ],
          "stateMutability": "nonpayable",
          "type": "constructor"
        },
        {
          "inputs": [],
          "name": "MyTokenStaking_AddressZeroNotAllowed",
          "type": "error"
        },
        {
          "inputs": [],
          "name": "MyTokenStaking_CannotStakeZero",
          "type": "error"
        },
        {
          "inputs": [],
          "name": "MyTokenStaking_DurationTooLong",
          "type": "error"
        },
        {
          "inputs": [],
          "name": "MyTokenStaking_DurationTooShort",
          "type": "error"
        },
        {
          "inputs": [],
          "name": "MyTokenStaking_InsufficientRewards",
          "type": "error"
        },
        {
          "inputs": [],
          "name": "MyTokenStaking_NoRewardsToClaim",
          "type": "error"
        },
        {
          "inputs": [],
          "name": "MyTokenStaking_RewardClaimFailed",
          "type": "error"
        },
        {
          "inputs": [],
          "name": "MyTokenStaking_RewardsCannotBeZero",
          "type": "error"
        },
        {
          "inputs": [
            {
              "internalType": "uint256",
              "name": "rewards",
              "type": "uint256"
            }
          ],
          "name": "MyTokenStaking_RewardsNotClaimedYet",
          "type": "error"
        },
        {
          "inputs": [],
          "name": "MyTokenStaking_StakingFailed",
          "type": "error"
        },
        {
          "inputs": [],
          "name": "MyTokenStaking_UnstakeFailed",
          "type": "error"
        },
        {
          "inputs": [
            {
              "internalType": "uint256",
              "name": "timeLeft",
              "type": "uint256"
            }
          ],
          "name": "MyTokenStaking_UnstakeTooEarly",
          "type": "error"
        },
        {
          "anonymous": false,
          "inputs": [
            {
              "indexed": true,
              "internalType": "address",
              "name": "staker",
              "type": "address"
            },
            {
              "indexed": true,
              "internalType": "uint256",
              "name": "amount",
              "type": "uint256"
            }
          ],
          "name": "RewardClaim",
          "type": "event"
        },
        {
          "anonymous": false,
          "inputs": [
            {
              "indexed": true,
              "internalType": "address",
              "name": "staker",
              "type": "address"
            },
            {
              "indexed": true,
              "internalType": "uint256",
              "name": "amount",
              "type": "uint256"
            }
          ],
          "name": "Stake",
          "type": "event"
        },
        {
          "anonymous": false,
          "inputs": [
            {
              "indexed": true,
              "internalType": "address",
              "name": "staker",
              "type": "address"
            },
            {
              "indexed": true,
              "internalType": "uint256",
              "name": "amount",
              "type": "uint256"
            }
          ],
          "name": "Unstake",
          "type": "event"
        },
        {
          "inputs": [
            {
              "internalType": "address",
              "name": "_address",
              "type": "address"
            }
          ],
          "name": "calculateRewards",
          "outputs": [
            {
              "internalType": "uint256",
              "name": "",
              "type": "uint256"
            }
          ],
          "stateMutability": "view",
          "type": "function"
        },
        {
          "inputs": [],
          "name": "claimReward",
          "outputs": [
            {
              "internalType": "bool",
              "name": "success",
              "type": "bool"
            }
          ],
          "stateMutability": "nonpayable",
          "type": "function"
        },
        {
          "inputs": [
            {
              "internalType": "uint256",
              "name": "amount",
              "type": "uint256"
            },
            {
              "internalType": "uint256",
              "name": "stakeDuration",
              "type": "uint256"
            }
          ],
          "name": "stake",
          "outputs": [
            {
              "internalType": "bool",
              "name": "success",
              "type": "bool"
            }
          ],
          "stateMutability": "payable",
          "type": "function"
        },
        {
          "inputs": [],
          "name": "unstake",
          "outputs": [
            {
              "internalType": "bool",
              "name": "success",
              "type": "bool"
            }
          ],
          "stateMutability": "nonpayable",
          "type": "function"
        }
      ],
      "evm": {
        "bytecode": {
          "linkReferences": {},
          "object": "60e06040523480156200001157600080fd5b50604051620013ef380380620013ef8339818101604052810190620000379190620001e6565b8373ffffffffffffffffffffffffffffffffffffffff1660c08173ffffffffffffffffffffffffffffffffffffffff16815250508260ff1660a08160ff16815250506301e133806012600a6200008e9190620003db565b8460ff166200009e91906200042c565b620000aa9190620004a6565b608081815250508160038190555080600460006101000a81548173ffffffffffffffffffffffffffffffffffffffff021916908373ffffffffffffffffffffffffffffffffffffffff16021790555050505050620004de565b600080fd5b600073ffffffffffffffffffffffffffffffffffffffff82169050919050565b6000620001358262000108565b9050919050565b620001478162000128565b81146200015357600080fd5b50565b60008151905062000167816200013c565b92915050565b600060ff82169050919050565b62000185816200016d565b81146200019157600080fd5b50565b600081519050620001a5816200017a565b92915050565b6000819050919050565b620001c081620001ab565b8114620001cc57600080fd5b50565b600081519050620001e081620001b5565b92915050565b6000806000806080858703121562000203576200020262000103565b5b6000620002138782880162000156565b9450506020620002268782880162000194565b93505060406200023987828801620001cf565b92505060606200024c8782880162000156565b91505092959194509250565b7f4e487b7100000000000000000000000000000000000000000000000000000000600052601160045260246000fd5b60008160011c9050919050565b6000808291508390505b6001851115620002e657808604811115620002be57620002bd62000258565b5b6001851615620002ce5780820291505b8081029050620002de8562000287565b94506200029e565b94509492505050565b600082620003015760019050620003d4565b81620003115760009050620003d4565b81600181146200032a576002811462000335576200036b565b6001915050620003d4565b60ff8411156200034a576200034962000258565b5b8360020a91508482111562000364576200036362000258565b5b50620003d4565b5060208310610133831016604e8410600b8410161715620003a55782820a9050838111156200039f576200039e62000258565b5b620003d4565b620003b4848484600162000294565b92509050818404811115620003ce57620003cd62000258565b5b81810290505b9392505050565b6000620003e882620001ab565b9150620003f5836200016d565b9250620004247fffffffffffffffffffffffffffffffffffffffffffffffffffffffffffffffff8484620002ef565b905092915050565b60006200043982620001ab565b91506200044683620001ab565b92508282026200045681620001ab565b9150828204841483151762000470576200046f62000258565b5b5092915050565b7f4e487b7100000000000000000000000000000000000000000000000000000000600052601260045260246000fd5b6000620004b382620001ab565b9150620004c083620001ab565b925082620004d357620004d262000477565b5b828204905092915050565b60805160a05160c051610ed662000519600039600081816102650152818161058b0152610822015260005050600061047b0152610ed66000f3fe60806040526004361061003f5760003560e01c80632def66201461004457806364ab86751461006f5780637b0472f0146100ac578063b88a802f146100dc575b600080fd5b34801561005057600080fd5b50610059610107565b60405161006691906109c9565b60405180910390f35b34801561007b57600080fd5b5061009660048036038101906100919190610a47565b610389565b6040516100a39190610a8d565b60405180910390f35b6100c660048036038101906100c19190610ad4565b6104cc565b6040516100d391906109c9565b60405180910390f35b3480156100e857600080fd5b506100f1610762565b6040516100fe91906109c9565b60405180910390f35b600061011233610945565b60008060003373ffffffffffffffffffffffffffffffffffffffff1673ffffffffffffffffffffffffffffffffffffffff168152602001908152602001600020905042816002015411156101ac574281600201546101709190610b43565b6040517f6542e7160000000000000000000000000000000000000000000000000000000081526004016101a39190610a8d565b60405180910390fd5b60006101b733610389565b905060008111156101ff57806040517f8e0259e60000000000000000000000000000000000000000000000000000000081526004016101f69190610a8d565b60405180910390fd5b60008260000154905060008360040160006101000a81548160ff021916908315150217905550600083600001819055506000836001018190555060008360020181905550600083600301819055508060015461025b9190610b43565b60018190555060007f000000000000000000000000000000000000000000000000000000000000000073ffffffffffffffffffffffffffffffffffffffff1663a9059cbb33846040518363ffffffff1660e01b81526004016102be929190610b86565b6020604051808303816000875af11580156102dd573d6000803e3d6000fd5b505050506040513d601f19601f820116820180604052508101906103019190610bdb565b90508061033a576040517f8fcbb10400000000000000000000000000000000000000000000000000000000815260040160405180910390fd5b60019450813373ffffffffffffffffffffffffffffffffffffffff167f85082129d87b2fe11527cb1b3b7a520aeb5aa6913f88a3d8757fe40d1db02fdd60405160405180910390a35050505090565b6000806000808473ffffffffffffffffffffffffffffffffffffffff1673ffffffffffffffffffffffffffffffffffffffff1681526020019081526020016000206040518060a0016040529081600082015481526020016001820154815260200160028201548152602001600382015481526020016004820160009054906101000a900460ff1615151515815250509050806080015161042d5760009150506104c7565b60004282604001511015610456578160600151826040015161044f9190610b43565b9050610469565b8160600151426104669190610b43565b90505b60006012600a6104799190610d48565b7f00000000000000000000000000000000000000000000000000000000000000008385600001516104aa9190610d93565b6104b49190610d93565b6104be9190610e04565b90508093505050505b919050565b60006104d733610945565b60008303610511576040517fd6ad4e3600000000000000000000000000000000000000000000000000000000815260040160405180910390fd5b6000820361054b576040517f6ed41de600000000000000000000000000000000000000000000000000000000815260040160405180910390fd5b600354821115610587576040517fd9e6bf7700000000000000000000000000000000000000000000000000000000815260040160405180910390fd5b60007f000000000000000000000000000000000000000000000000000000000000000073ffffffffffffffffffffffffffffffffffffffff166323b872dd3330876040518463ffffffff1660e01b81526004016105e693929190610e35565b6020604051808303816000875af1158015610605573d6000803e3d6000fd5b505050506040513d601f19601f820116820180604052508101906106299190610bdb565b905080610662576040517faa7d91c500000000000000000000000000000000000000000000000000000000815260040160405180910390fd5b60008060003373ffffffffffffffffffffffffffffffffffffffff1673ffffffffffffffffffffffffffffffffffffffff16815260200190815260200160002090508060040160009054906101000a900460ff166106fe5760018160040160006101000a81548160ff02191690831515021790555042816001018190555042816003018190555083426106f59190610e6c565b81600201819055505b8460015461070c9190610e6c565b60018190555060019250843373ffffffffffffffffffffffffffffffffffffffff167febedb8b3c678666e7f36970bc8f57abf6d8fa2e828c0da91ea5b75bf68ed101a60405160405180910390a3505092915050565b600061076d33610945565b600061077833610389565b9050600081036107b4576040517f4c18712b00000000000000000000000000000000000000000000000000000000815260040160405180910390fd5b60008060003373ffffffffffffffffffffffffffffffffffffffff1673ffffffffffffffffffffffffffffffffffffffff168152602001908152602001600020905042816002015410156108105742816003018190555061081e565b806002015481600301819055505b60007f000000000000000000000000000000000000000000000000000000000000000073ffffffffffffffffffffffffffffffffffffffff1663a9059cbb33856040518363ffffffff1660e01b815260040161087b929190610b86565b6020604051808303816000875af115801561089a573d6000803e3d6000fd5b505050506040513d601f19601f820116820180604052508101906108be9190610bdb565b9050806108f7576040517f132e56ba00000000000000000000000000000000000000000000000000000000815260040160405180910390fd5b60019350823373ffffffffffffffffffffffffffffffffffffffff167f75690555e75b04e280e646889defdcbefd8401507e5394d1173fd84290944c2960405160405180910390a350505090565b600073ffffffffffffffffffffffffffffffffffffffff168173ffffffffffffffffffffffffffffffffffffffff16036109ab576040517f21a0db1300000000000000000000000000000000000000000000000000000000815260040160405180910390fd5b50565b60008115159050919050565b6109c3816109ae565b82525050565b60006020820190506109de60008301846109ba565b92915050565b600080fd5b600073ffffffffffffffffffffffffffffffffffffffff82169050919050565b6000610a14826109e9565b9050919050565b610a2481610a09565b8114610a2f57600080fd5b50565b600081359050610a4181610a1b565b92915050565b600060208284031215610a5d57610a5c6109e4565b5b6000610a6b84828501610a32565b91505092915050565b6000819050919050565b610a8781610a74565b82525050565b6000602082019050610aa26000830184610a7e565b92915050565b610ab181610a74565b8114610abc57600080fd5b50565b600081359050610ace81610aa8565b92915050565b60008060408385031215610aeb57610aea6109e4565b5b6000610af985828601610abf565b9250506020610b0a85828601610abf565b9150509250929050565b7f4e487b7100000000000000000000000000000000000000000000000000000000600052601160045260246000fd5b6000610b4e82610a74565b9150610b5983610a74565b9250828203905081811115610b7157610b70610b14565b5b92915050565b610b8081610a09565b82525050565b6000604082019050610b9b6000830185610b77565b610ba86020830184610a7e565b9392505050565b610bb8816109ae565b8114610bc357600080fd5b50565b600081519050610bd581610baf565b92915050565b600060208284031215610bf157610bf06109e4565b5b6000610bff84828501610bc6565b91505092915050565b60008160011c9050919050565b6000808291508390505b6001851115610c5f57808604811115610c3b57610c3a610b14565b5b6001851615610c4a5780820291505b8081029050610c5885610c08565b9450610c1f565b94509492505050565b600082610c785760019050610d34565b81610c865760009050610d34565b8160018114610c9c5760028114610ca657610cd5565b6001915050610d34565b60ff841115610cb857610cb7610b14565b5b8360020a915084821115610ccf57610cce610b14565b5b50610d34565b5060208310610133831016604e8410600b8410161715610d0a5782820a905083811115610d0557610d04610b14565b5b610d34565b610d178484846001610c15565b92509050818404811115610d2e57610d2d610b14565b5b81810290505b9392505050565b600060ff82169050919050565b6000610d5382610a74565b9150610d5e83610d3b565b9250610d8b7fffffffffffffffffffffffffffffffffffffffffffffffffffffffffffffffff8484610c68565b905092915050565b6000610d9e82610a74565b9150610da983610a74565b9250828202610db781610a74565b91508282048414831517610dce57610dcd610b14565b5b5092915050565b7f4e487b7100000000000000000000000000000000000000000000000000000000600052601260045260246000fd5b6000610e0f82610a74565b9150610e1a83610a74565b925082610e2a57610e29610dd5565b5b828204905092915050565b6000606082019050610e4a6000830186610b77565b610e576020830185610b77565b610e646040830184610a7e565b949350505050565b6000610e7782610a74565b9150610e8283610a74565b9250828201905080821115610e9a57610e99610b14565b5b9291505056fea26469706673582212203b78ff4fdb37929a40da607fe204c42cda9190ea67333490bb65f4f52888a22f64736f6c63430008180033",
          "opcodes": "PUSH1 0xE0 PUSH1 0x40 MSTORE CALLVALUE DUP1 ISZERO PUSH3 0x11 JUMPI PUSH1 0x0 DUP1 REVERT JUMPDEST POP PUSH1 0x40 MLOAD PUSH3 0x13EF CODESIZE SUB DUP1 PUSH3 0x13EF DUP4 CODECOPY DUP2 DUP2 ADD PUSH1 0x40 MSTORE DUP2 ADD SWAP1 PUSH3 0x37 SWAP2 SWAP1 PUSH3 0x1E6 JUMP JUMPDEST DUP4 PUSH20 0xFFFFFFFFFFFFFFFFFFFFFFFFFFFFFFFFFFFFFFFF AND PUSH1 0xC0 DUP2 PUSH20 0xFFFFFFFFFFFFFFFFFFFFFFFFFFFFFFFFFFFFFFFF AND DUP2 MSTORE POP POP DUP3 PUSH1 0xFF AND PUSH1 0xA0 DUP2 PUSH1 0xFF AND DUP2 MSTORE POP POP PUSH4 0x1E13380 PUSH1 0x12 PUSH1 0xA PUSH3 0x8E SWAP2 SWAP1 PUSH3 0x3DB JUMP JUMPDEST DUP5 PUSH1 0xFF AND PUSH3 0x9E SWAP2 SWAP1 PUSH3 0x42C JUMP JUMPDEST PUSH3 0xAA SWAP2 SWAP1 PUSH3 0x4A6 JUMP JUMPDEST PUSH1 0x80 DUP2 DUP2 MSTORE POP POP DUP2 PUSH1 0x3 DUP2 SWAP1 SSTORE POP DUP1 PUSH1 0x4 PUSH1 0x0 PUSH2 0x100 EXP DUP2 SLOAD DUP2 PUSH20 0xFFFFFFFFFFFFFFFFFFFFFFFFFFFFFFFFFFFFFFFF MUL NOT AND SWAP1 DUP4 PUSH20 0xFFFFFFFFFFFFFFFFFFFFFFFFFFFFFFFFFFFFFFFF AND MUL OR SWAP1 SSTORE POP POP POP POP POP PUSH3 0x4DE JUMP JUMPDEST PUSH1 0x0 DUP1 REVERT JUMPDEST PUSH1 0x0 PUSH20 0xFFFFFFFFFFFFFFFFFFFFFFFFFFFFFFFFFFFFFFFF DUP3 AND SWAP1 POP SWAP2 SWAP1 POP JUMP JUMPDEST PUSH1 0x0 PUSH3 0x135 DUP3 PUSH3 0x108 JUMP JUMPDEST SWAP1 POP SWAP2 SWAP1 POP JUMP JUMPDEST PUSH3 0x147 DUP2 PUSH3 0x128 JUMP JUMPDEST DUP2 EQ PUSH3 0x153 JUMPI PUSH1 0x0 DUP1 REVERT JUMPDEST POP JUMP JUMPDEST PUSH1 0x0 DUP2 MLOAD SWAP1 POP PUSH3 0x167 DUP2 PUSH3 0x13C JUMP JUMPDEST SWAP3 SWAP2 POP POP JUMP JUMPDEST PUSH1 0x0 PUSH1 0xFF DUP3 AND SWAP1 POP SWAP2 SWAP1 POP JUMP JUMPDEST PUSH3 0x185 DUP2 PUSH3 0x16D JUMP JUMPDEST DUP2 EQ PUSH3 0x191 JUMPI PUSH1 0x0 DUP1 REVERT JUMPDEST POP JUMP JUMPDEST PUSH1 0x0 DUP2 MLOAD SWAP1 POP PUSH3 0x1A5 DUP2 PUSH3 0x17A JUMP JUMPDEST SWAP3 SWAP2 POP POP JUMP JUMPDEST PUSH1 0x0 DUP2 SWAP1 POP SWAP2 SWAP1 POP JUMP JUMPDEST PUSH3 0x1C0 DUP2 PUSH3 0x1AB JUMP JUMPDEST DUP2 EQ PUSH3 0x1CC JUMPI PUSH1 0x0 DUP1 REVERT JUMPDEST POP JUMP JUMPDEST PUSH1 0x0 DUP2 MLOAD SWAP1 POP PUSH3 0x1E0 DUP2 PUSH3 0x1B5 JUMP JUMPDEST SWAP3 SWAP2 POP POP JUMP JUMPDEST PUSH1 0x0 DUP1 PUSH1 0x0 DUP1 PUSH1 0x80 DUP6 DUP8 SUB SLT ISZERO PUSH3 0x203 JUMPI PUSH3 0x202 PUSH3 0x103 JUMP JUMPDEST JUMPDEST PUSH1 0x0 PUSH3 0x213 DUP8 DUP3 DUP9 ADD PUSH3 0x156 JUMP JUMPDEST SWAP5 POP POP PUSH1 0x20 PUSH3 0x226 DUP8 DUP3 DUP9 ADD PUSH3 0x194 JUMP JUMPDEST SWAP4 POP POP PUSH1 0x40 PUSH3 0x239 DUP8 DUP3 DUP9 ADD PUSH3 0x1CF JUMP JUMPDEST SWAP3 POP POP PUSH1 0x60 PUSH3 0x24C DUP8 DUP3 DUP9 ADD PUSH3 0x156 JUMP JUMPDEST SWAP2 POP POP SWAP3 SWAP6 SWAP2 SWAP5 POP SWAP3 POP JUMP JUMPDEST PUSH32 0x4E487B7100000000000000000000000000000000000000000000000000000000 PUSH1 0x0 MSTORE PUSH1 0x11 PUSH1 0x4 MSTORE PUSH1 0x24 PUSH1 0x0 REVERT JUMPDEST PUSH1 0x0 DUP2 PUSH1 0x1 SHR SWAP1 POP SWAP2 SWAP1 POP JUMP JUMPDEST PUSH1 0x0 DUP1 DUP3 SWAP2 POP DUP4 SWAP1 POP JUMPDEST PUSH1 0x1 DUP6 GT ISZERO PUSH3 0x2E6 JUMPI DUP1 DUP7 DIV DUP2 GT ISZERO PUSH3 0x2BE JUMPI PUSH3 0x2BD PUSH3 0x258 JUMP JUMPDEST JUMPDEST PUSH1 0x1 DUP6 AND ISZERO PUSH3 0x2CE JUMPI DUP1 DUP3 MUL SWAP2 POP JUMPDEST DUP1 DUP2 MUL SWAP1 POP PUSH3 0x2DE DUP6 PUSH3 0x287 JUMP JUMPDEST SWAP5 POP PUSH3 0x29E JUMP JUMPDEST SWAP5 POP SWAP5 SWAP3 POP POP POP JUMP JUMPDEST PUSH1 0x0 DUP3 PUSH3 0x301 JUMPI PUSH1 0x1 SWAP1 POP PUSH3 0x3D4 JUMP JUMPDEST DUP2 PUSH3 0x311 JUMPI PUSH1 0x0 SWAP1 POP PUSH3 0x3D4 JUMP JUMPDEST DUP2 PUSH1 0x1 DUP2 EQ PUSH3 0x32A JUMPI PUSH1 0x2 DUP2 EQ PUSH3 0x335 JUMPI PUSH3 0x36B JUMP JUMPDEST PUSH1 0x1 SWAP2 POP POP PUSH3 0x3D4 JUMP JUMPDEST PUSH1 0xFF DUP5 GT ISZERO PUSH3 0x34A JUMPI PUSH3 0x349 PUSH3 0x258 JUMP JUMPDEST JUMPDEST DUP4 PUSH1 0x2 EXP SWAP2 POP DUP5 DUP3 GT ISZERO PUSH3 0x364 JUMPI PUSH3 0x363 PUSH3 0x258 JUMP JUMPDEST JUMPDEST POP PUSH3 0x3D4 JUMP JUMPDEST POP PUSH1 0x20 DUP4 LT PUSH2 0x133 DUP4 LT AND PUSH1 0x4E DUP5 LT PUSH1 0xB DUP5 LT AND OR ISZERO PUSH3 0x3A5 JUMPI DUP3 DUP3 EXP SWAP1 POP DUP4 DUP2 GT ISZERO PUSH3 0x39F JUMPI PUSH3 0x39E PUSH3 0x258 JUMP JUMPDEST JUMPDEST PUSH3 0x3D4 JUMP JUMPDEST PUSH3 0x3B4 DUP5 DUP5 DUP5 PUSH1 0x1 PUSH3 0x294 JUMP JUMPDEST SWAP3 POP SWAP1 POP DUP2 DUP5 DIV DUP2 GT ISZERO PUSH3 0x3CE JUMPI PUSH3 0x3CD PUSH3 0x258 JUMP JUMPDEST JUMPDEST DUP2 DUP2 MUL SWAP1 POP JUMPDEST SWAP4 SWAP3 POP POP POP JUMP JUMPDEST PUSH1 0x0 PUSH3 0x3E8 DUP3 PUSH3 0x1AB JUMP JUMPDEST SWAP2 POP PUSH3 0x3F5 DUP4 PUSH3 0x16D JUMP JUMPDEST SWAP3 POP PUSH3 0x424 PUSH32 0xFFFFFFFFFFFFFFFFFFFFFFFFFFFFFFFFFFFFFFFFFFFFFFFFFFFFFFFFFFFFFFFF DUP5 DUP5 PUSH3 0x2EF JUMP JUMPDEST SWAP1 POP SWAP3 SWAP2 POP POP JUMP JUMPDEST PUSH1 0x0 PUSH3 0x439 DUP3 PUSH3 0x1AB JUMP JUMPDEST SWAP2 POP PUSH3 0x446 DUP4 PUSH3 0x1AB JUMP JUMPDEST SWAP3 POP DUP3 DUP3 MUL PUSH3 0x456 DUP2 PUSH3 0x1AB JUMP JUMPDEST SWAP2 POP DUP3 DUP3 DIV DUP5 EQ DUP4 ISZERO OR PUSH3 0x470 JUMPI PUSH3 0x46F PUSH3 0x258 JUMP JUMPDEST JUMPDEST POP SWAP3 SWAP2 POP POP JUMP JUMPDEST PUSH32 0x4E487B7100000000000000000000000000000000000000000000000000000000 PUSH1 0x0 MSTORE PUSH1 0x12 PUSH1 0x4 MSTORE PUSH1 0x24 PUSH1 0x0 REVERT JUMPDEST PUSH1 0x0 PUSH3 0x4B3 DUP3 PUSH3 0x1AB JUMP JUMPDEST SWAP2 POP PUSH3 0x4C0 DUP4 PUSH3 0x1AB JUMP JUMPDEST SWAP3 POP DUP3 PUSH3 0x4D3 JUMPI PUSH3 0x4D2 PUSH3 0x477 JUMP JUMPDEST JUMPDEST DUP3 DUP3 DIV SWAP1 POP SWAP3 SWAP2 POP POP JUMP JUMPDEST PUSH1 0x80 MLOAD PUSH1 0xA0 MLOAD PUSH1 0xC0 MLOAD PUSH2 0xED6 PUSH3 0x519 PUSH1 0x0 CODECOPY PUSH1 0x0 DUP2 DUP2 PUSH2 0x265 ADD MSTORE DUP2 DUP2 PUSH2 0x58B ADD MSTORE PUSH2 0x822 ADD MSTORE PUSH1 0x0 POP POP PUSH1 0x0 PUSH2 0x47B ADD MSTORE PUSH2 0xED6 PUSH1 0x0 RETURN INVALID PUSH1 0x80 PUSH1 0x40 MSTORE PUSH1 0x4 CALLDATASIZE LT PUSH2 0x3F JUMPI PUSH1 0x0 CALLDATALOAD PUSH1 0xE0 SHR DUP1 PUSH4 0x2DEF6620 EQ PUSH2 0x44 JUMPI DUP1 PUSH4 0x64AB8675 EQ PUSH2 0x6F JUMPI DUP1 PUSH4 0x7B0472F0 EQ PUSH2 0xAC JUMPI DUP1 PUSH4 0xB88A802F EQ PUSH2 0xDC JUMPI JUMPDEST PUSH1 0x0 DUP1 REVERT JUMPDEST CALLVALUE DUP1 ISZERO PUSH2 0x50 JUMPI PUSH1 0x0 DUP1 REVERT JUMPDEST POP PUSH2 0x59 PUSH2 0x107 JUMP JUMPDEST PUSH1 0x40 MLOAD PUSH2 0x66 SWAP2 SWAP1 PUSH2 0x9C9 JUMP JUMPDEST PUSH1 0x40 MLOAD DUP1 SWAP2 SUB SWAP1 RETURN JUMPDEST CALLVALUE DUP1 ISZERO PUSH2 0x7B JUMPI PUSH1 0x0 DUP1 REVERT JUMPDEST POP PUSH2 0x96 PUSH1 0x4 DUP1 CALLDATASIZE SUB DUP2 ADD SWAP1 PUSH2 0x91 SWAP2 SWAP1 PUSH2 0xA47 JUMP JUMPDEST PUSH2 0x389 JUMP JUMPDEST PUSH1 0x40 MLOAD PUSH2 0xA3 SWAP2 SWAP1 PUSH2 0xA8D JUMP JUMPDEST PUSH1 0x40 MLOAD DUP1 SWAP2 SUB SWAP1 RETURN JUMPDEST PUSH2 0xC6 PUSH1 0x4 DUP1 CALLDATASIZE SUB DUP2 ADD SWAP1 PUSH2 0xC1 SWAP2 SWAP1 PUSH2 0xAD4 JUMP JUMPDEST PUSH2 0x4CC JUMP JUMPDEST PUSH1 0x40 MLOAD PUSH2 0xD3 SWAP2 SWAP1 PUSH2 0x9C9 JUMP JUMPDEST PUSH1 0x40 MLOAD DUP1 SWAP2 SUB SWAP1 RETURN JUMPDEST CALLVALUE DUP1 ISZERO PUSH2 0xE8 JUMPI PUSH1 0x0 DUP1 REVERT JUMPDEST POP PUSH2 0xF1 PUSH2 0x762 JUMP JUMPDEST PUSH1 0x40 MLOAD PUSH2 0xFE SWAP2 SWAP1 PUSH2 0x9C9 JUMP JUMPDEST PUSH1 0x40 MLOAD DUP1 SWAP2 SUB SWAP1 RETURN JUMPDEST PUSH1 0x0 PUSH2 0x112 CALLER PUSH2 0x945 JUMP JUMPDEST PUSH1 0x0 DUP1 PUSH1 0x0 CALLER PUSH20 0xFFFFFFFFFFFFFFFFFFFFFFFFFFFFFFFFFFFFFFFF AND PUSH20 0xFFFFFFFFFFFFFFFFFFFFFFFFFFFFFFFFFFFFFFFF AND DUP2 MSTORE PUSH1 0x20 ADD SWAP1 DUP2 MSTORE PUSH1 0x20 ADD PUSH1 0x0 KECCAK256 SWAP1 POP TIMESTAMP DUP2 PUSH1 0x2 ADD SLOAD GT ISZERO PUSH2 0x1AC JUMPI TIMESTAMP DUP2 PUSH1 0x2 ADD SLOAD PUSH2 0x170 SWAP2 SWAP1 PUSH2 0xB43 JUMP JUMPDEST PUSH1 0x40 MLOAD PUSH32 0x6542E71600000000000000000000000000000000000000000000000000000000 DUP2 MSTORE PUSH1 0x4 ADD PUSH2 0x1A3 SWAP2 SWAP1 PUSH2 0xA8D JUMP JUMPDEST PUSH1 0x40 MLOAD DUP1 SWAP2 SUB SWAP1 REVERT JUMPDEST PUSH1 0x0 PUSH2 0x1B7 CALLER PUSH2 0x389 JUMP JUMPDEST SWAP1 POP PUSH1 0x0 DUP2 GT ISZERO PUSH2 0x1FF JUMPI DUP1 PUSH1 0x40 MLOAD PUSH32 0x8E0259E600000000000000000000000000000000000000000000000000000000 DUP2 MSTORE PUSH1 0x4 ADD PUSH2 0x1F6 SWAP2 SWAP1 PUSH2 0xA8D JUMP JUMPDEST PUSH1 0x40 MLOAD DUP1 SWAP2 SUB SWAP1 REVERT JUMPDEST PUSH1 0x0 DUP3 PUSH1 0x0 ADD SLOAD SWAP1 POP PUSH1 0x0 DUP4 PUSH1 0x4 ADD PUSH1 0x0 PUSH2 0x100 EXP DUP2 SLOAD DUP2 PUSH1 0xFF MUL NOT AND SWAP1 DUP4 ISZERO ISZERO MUL OR SWAP1 SSTORE POP PUSH1 0x0 DUP4 PUSH1 0x0 ADD DUP2 SWAP1 SSTORE POP PUSH1 0x0 DUP4 PUSH1 0x1 ADD DUP2 SWAP1 SSTORE POP PUSH1 0x0 DUP4 PUSH1 0x2 ADD DUP2 SWAP1 SSTORE POP PUSH1 0x0 DUP4 PUSH1 0x3 ADD DUP2 SWAP1 SSTORE POP DUP1 PUSH1 0x1 SLOAD PUSH2 0x25B SWAP2 SWAP1 PUSH2 0xB43 JUMP JUMPDEST PUSH1 0x1 DUP2 SWAP1 SSTORE POP PUSH1 0x0 PUSH32 0x0 PUSH20 0xFFFFFFFFFFFFFFFFFFFFFFFFFFFFFFFFFFFFFFFF AND PUSH4 0xA9059CBB CALLER DUP5 PUSH1 0x40 MLOAD DUP4 PUSH4 0xFFFFFFFF AND PUSH1 0xE0 SHL DUP2 MSTORE PUSH1 0x4 ADD PUSH2 0x2BE SWAP3 SWAP2 SWAP1 PUSH2 0xB86 JUMP JUMPDEST PUSH1 0x20 PUSH1 0x40 MLOAD DUP1 DUP4 SUB DUP2 PUSH1 0x0 DUP8 GAS CALL ISZERO DUP1 ISZERO PUSH2 0x2DD JUMPI RETURNDATASIZE PUSH1 0x0 DUP1 RETURNDATACOPY RETURNDATASIZE PUSH1 0x0 REVERT JUMPDEST POP POP POP POP PUSH1 0x40 MLOAD RETURNDATASIZE PUSH1 0x1F NOT PUSH1 0x1F DUP3 ADD AND DUP3 ADD DUP1 PUSH1 0x40 MSTORE POP DUP2 ADD SWAP1 PUSH2 0x301 SWAP2 SWAP1 PUSH2 0xBDB JUMP JUMPDEST SWAP1 POP DUP1 PUSH2 0x33A JUMPI PUSH1 0x40 MLOAD PUSH32 0x8FCBB10400000000000000000000000000000000000000000000000000000000 DUP2 MSTORE PUSH1 0x4 ADD PUSH1 0x40 MLOAD DUP1 SWAP2 SUB SWAP1 REVERT JUMPDEST PUSH1 0x1 SWAP5 POP DUP2 CALLER PUSH20 0xFFFFFFFFFFFFFFFFFFFFFFFFFFFFFFFFFFFFFFFF AND PUSH32 0x85082129D87B2FE11527CB1B3B7A520AEB5AA6913F88A3D8757FE40D1DB02FDD PUSH1 0x40 MLOAD PUSH1 0x40 MLOAD DUP1 SWAP2 SUB SWAP1 LOG3 POP POP POP POP SWAP1 JUMP JUMPDEST PUSH1 0x0 DUP1 PUSH1 0x0 DUP1 DUP5 PUSH20 0xFFFFFFFFFFFFFFFFFFFFFFFFFFFFFFFFFFFFFFFF AND PUSH20 0xFFFFFFFFFFFFFFFFFFFFFFFFFFFFFFFFFFFFFFFF AND DUP2 MSTORE PUSH1 0x20 ADD SWAP1 DUP2 MSTORE PUSH1 0x20 ADD PUSH1 0x0 KECCAK256 PUSH1 0x40 MLOAD DUP1 PUSH1 0xA0 ADD PUSH1 0x40 MSTORE SWAP1 DUP2 PUSH1 0x0 DUP3 ADD SLOAD DUP2 MSTORE PUSH1 0x20 ADD PUSH1 0x1 DUP3 ADD SLOAD DUP2 MSTORE PUSH1 0x20 ADD PUSH1 0x2 DUP3 ADD SLOAD DUP2 MSTORE PUSH1 0x20 ADD PUSH1 0x3 DUP3 ADD SLOAD DUP2 MSTORE PUSH1 0x20 ADD PUSH1 0x4 DUP3 ADD PUSH1 0x0 SWAP1 SLOAD SWAP1 PUSH2 0x100 EXP SWAP1 DIV PUSH1 0xFF AND ISZERO ISZERO ISZERO ISZERO DUP2 MSTORE POP POP SWAP1 POP DUP1 PUSH1 0x80 ADD MLOAD PUSH2 0x42D JUMPI PUSH1 0x0 SWAP2 POP POP PUSH2 0x4C7 JUMP JUMPDEST PUSH1 0x0 TIMESTAMP DUP3 PUSH1 0x40 ADD MLOAD LT ISZERO PUSH2 0x456 JUMPI DUP2 PUSH1 0x60 ADD MLOAD DUP3 PUSH1 0x40 ADD MLOAD PUSH2 0x44F SWAP2 SWAP1 PUSH2 0xB43 JUMP JUMPDEST SWAP1 POP PUSH2 0x469 JUMP JUMPDEST DUP2 PUSH1 0x60 ADD MLOAD TIMESTAMP PUSH2 0x466 SWAP2 SWAP1 PUSH2 0xB43 JUMP JUMPDEST SWAP1 POP JUMPDEST PUSH1 0x0 PUSH1 0x12 PUSH1 0xA PUSH2 0x479 SWAP2 SWAP1 PUSH2 0xD48 JUMP JUMPDEST PUSH32 0x0 DUP4 DUP6 PUSH1 0x0 ADD MLOAD PUSH2 0x4AA SWAP2 SWAP1 PUSH2 0xD93 JUMP JUMPDEST PUSH2 0x4B4 SWAP2 SWAP1 PUSH2 0xD93 JUMP JUMPDEST PUSH2 0x4BE SWAP2 SWAP1 PUSH2 0xE04 JUMP JUMPDEST SWAP1 POP DUP1 SWAP4 POP POP POP POP JUMPDEST SWAP2 SWAP1 POP JUMP JUMPDEST PUSH1 0x0 PUSH2 0x4D7 CALLER PUSH2 0x945 JUMP JUMPDEST PUSH1 0x0 DUP4 SUB PUSH2 0x511 JUMPI PUSH1 0x40 MLOAD PUSH32 0xD6AD4E3600000000000000000000000000000000000000000000000000000000 DUP2 MSTORE PUSH1 0x4 ADD PUSH1 0x40 MLOAD DUP1 SWAP2 SUB SWAP1 REVERT JUMPDEST PUSH1 0x0 DUP3 SUB PUSH2 0x54B JUMPI PUSH1 0x40 MLOAD PUSH32 0x6ED41DE600000000000000000000000000000000000000000000000000000000 DUP2 MSTORE PUSH1 0x4 ADD PUSH1 0x40 MLOAD DUP1 SWAP2 SUB SWAP1 REVERT JUMPDEST PUSH1 0x3 SLOAD DUP3 GT ISZERO PUSH2 0x587 JUMPI PUSH1 0x40 MLOAD PUSH32 0xD9E6BF7700000000000000000000000000000000000000000000000000000000 DUP2 MSTORE PUSH1 0x4 ADD PUSH1 0x40 MLOAD DUP1 SWAP2 SUB SWAP1 REVERT JUMPDEST PUSH1 0x0 PUSH32 0x0 PUSH20 0xFFFFFFFFFFFFFFFFFFFFFFFFFFFFFFFFFFFFFFFF AND PUSH4 0x23B872DD CALLER ADDRESS DUP8 PUSH1 0x40 MLOAD DUP5 PUSH4 0xFFFFFFFF AND PUSH1 0xE0 SHL DUP2 MSTORE PUSH1 0x4 ADD PUSH2 0x5E6 SWAP4 SWAP3 SWAP2 SWAP1 PUSH2 0xE35 JUMP JUMPDEST PUSH1 0x20 PUSH1 0x40 MLOAD DUP1 DUP4 SUB DUP2 PUSH1 0x0 DUP8 GAS CALL ISZERO DUP1 ISZERO PUSH2 0x605 JUMPI RETURNDATASIZE PUSH1 0x0 DUP1 RETURNDATACOPY RETURNDATASIZE PUSH1 0x0 REVERT JUMPDEST POP POP POP POP PUSH1 0x40 MLOAD RETURNDATASIZE PUSH1 0x1F NOT PUSH1 0x1F DUP3 ADD AND DUP3 ADD DUP1 PUSH1 0x40 MSTORE POP DUP2 ADD SWAP1 PUSH2 0x629 SWAP2 SWAP1 PUSH2 0xBDB JUMP JUMPDEST SWAP1 POP DUP1 PUSH2 0x662 JUMPI PUSH1 0x40 MLOAD PUSH32 0xAA7D91C500000000000000000000000000000000000000000000000000000000 DUP2 MSTORE PUSH1 0x4 ADD PUSH1 0x40 MLOAD DUP1 SWAP2 SUB SWAP1 REVERT JUMPDEST PUSH1 0x0 DUP1 PUSH1 0x0 CALLER PUSH20 0xFFFFFFFFFFFFFFFFFFFFFFFFFFFFFFFFFFFFFFFF AND PUSH20 0xFFFFFFFFFFFFFFFFFFFFFFFFFFFFFFFFFFFFFFFF AND DUP2 MSTORE PUSH1 0x20 ADD SWAP1 DUP2 MSTORE PUSH1 0x20 ADD PUSH1 0x0 KECCAK256 SWAP1 POP DUP1 PUSH1 0x4 ADD PUSH1 0x0 SWAP1 SLOAD SWAP1 PUSH2 0x100 EXP SWAP1 DIV PUSH1 0xFF AND PUSH2 0x6FE JUMPI PUSH1 0x1 DUP2 PUSH1 0x4 ADD PUSH1 0x0 PUSH2 0x100 EXP DUP2 SLOAD DUP2 PUSH1 0xFF MUL NOT AND SWAP1 DUP4 ISZERO ISZERO MUL OR SWAP1 SSTORE POP TIMESTAMP DUP2 PUSH1 0x1 ADD DUP2 SWAP1 SSTORE POP TIMESTAMP DUP2 PUSH1 0x3 ADD DUP2 SWAP1 SSTORE POP DUP4 TIMESTAMP PUSH2 0x6F5 SWAP2 SWAP1 PUSH2 0xE6C JUMP JUMPDEST DUP2 PUSH1 0x2 ADD DUP2 SWAP1 SSTORE POP JUMPDEST DUP5 PUSH1 0x1 SLOAD PUSH2 0x70C SWAP2 SWAP1 PUSH2 0xE6C JUMP JUMPDEST PUSH1 0x1 DUP2 SWAP1 SSTORE POP PUSH1 0x1 SWAP3 POP DUP5 CALLER PUSH20 0xFFFFFFFFFFFFFFFFFFFFFFFFFFFFFFFFFFFFFFFF AND PUSH32 0xEBEDB8B3C678666E7F36970BC8F57ABF6D8FA2E828C0DA91EA5B75BF68ED101A PUSH1 0x40 MLOAD PUSH1 0x40 MLOAD DUP1 SWAP2 SUB SWAP1 LOG3 POP POP SWAP3 SWAP2 POP POP JUMP JUMPDEST PUSH1 0x0 PUSH2 0x76D CALLER PUSH2 0x945 JUMP JUMPDEST PUSH1 0x0 PUSH2 0x778 CALLER PUSH2 0x389 JUMP JUMPDEST SWAP1 POP PUSH1 0x0 DUP2 SUB PUSH2 0x7B4 JUMPI PUSH1 0x40 MLOAD PUSH32 0x4C18712B00000000000000000000000000000000000000000000000000000000 DUP2 MSTORE PUSH1 0x4 ADD PUSH1 0x40 MLOAD DUP1 SWAP2 SUB SWAP1 REVERT JUMPDEST PUSH1 0x0 DUP1 PUSH1 0x0 CALLER PUSH20 0xFFFFFFFFFFFFFFFFFFFFFFFFFFFFFFFFFFFFFFFF AND PUSH20 0xFFFFFFFFFFFFFFFFFFFFFFFFFFFFFFFFFFFFFFFF AND DUP2 MSTORE PUSH1 0x20 ADD SWAP1 DUP2 MSTORE PUSH1 0x20 ADD PUSH1 0x0 KECCAK256 SWAP1 POP TIMESTAMP DUP2 PUSH1 0x2 ADD SLOAD LT ISZERO PUSH2 0x810 JUMPI TIMESTAMP DUP2 PUSH1 0x3 ADD DUP2 SWAP1 SSTORE POP PUSH2 0x81E JUMP JUMPDEST DUP1 PUSH1 0x2 ADD SLOAD DUP2 PUSH1 0x3 ADD DUP2 SWAP1 SSTORE POP JUMPDEST PUSH1 0x0 PUSH32 0x0 PUSH20 0xFFFFFFFFFFFFFFFFFFFFFFFFFFFFFFFFFFFFFFFF AND PUSH4 0xA9059CBB CALLER DUP6 PUSH1 0x40 MLOAD DUP4 PUSH4 0xFFFFFFFF AND PUSH1 0xE0 SHL DUP2 MSTORE PUSH1 0x4 ADD PUSH2 0x87B SWAP3 SWAP2 SWAP1 PUSH2 0xB86 JUMP JUMPDEST PUSH1 0x20 PUSH1 0x40 MLOAD DUP1 DUP4 SUB DUP2 PUSH1 0x0 DUP8 GAS CALL ISZERO DUP1 ISZERO PUSH2 0x89A JUMPI RETURNDATASIZE PUSH1 0x0 DUP1 RETURNDATACOPY RETURNDATASIZE PUSH1 0x0 REVERT JUMPDEST POP POP POP POP PUSH1 0x40 MLOAD RETURNDATASIZE PUSH1 0x1F NOT PUSH1 0x1F DUP3 ADD AND DUP3 ADD DUP1 PUSH1 0x40 MSTORE POP DUP2 ADD SWAP1 PUSH2 0x8BE SWAP2 SWAP1 PUSH2 0xBDB JUMP JUMPDEST SWAP1 POP DUP1 PUSH2 0x8F7 JUMPI PUSH1 0x40 MLOAD PUSH32 0x132E56BA00000000000000000000000000000000000000000000000000000000 DUP2 MSTORE PUSH1 0x4 ADD PUSH1 0x40 MLOAD DUP1 SWAP2 SUB SWAP1 REVERT JUMPDEST PUSH1 0x1 SWAP4 POP DUP3 CALLER PUSH20 0xFFFFFFFFFFFFFFFFFFFFFFFFFFFFFFFFFFFFFFFF AND PUSH32 0x75690555E75B04E280E646889DEFDCBEFD8401507E5394D1173FD84290944C29 PUSH1 0x40 MLOAD PUSH1 0x40 MLOAD DUP1 SWAP2 SUB SWAP1 LOG3 POP POP POP SWAP1 JUMP JUMPDEST PUSH1 0x0 PUSH20 0xFFFFFFFFFFFFFFFFFFFFFFFFFFFFFFFFFFFFFFFF AND DUP2 PUSH20 0xFFFFFFFFFFFFFFFFFFFFFFFFFFFFFFFFFFFFFFFF AND SUB PUSH2 0x9AB JUMPI PUSH1 0x40 MLOAD PUSH32 0x21A0DB1300000000000000000000000000000000000000000000000000000000 DUP2 MSTORE PUSH1 0x4 ADD PUSH1 0x40 MLOAD DUP1 SWAP2 SUB SWAP1 REVERT JUMPDEST POP JUMP JUMPDEST PUSH1 0x0 DUP2 ISZERO ISZERO SWAP1 POP SWAP2 SWAP1 POP JUMP JUMPDEST PUSH2 0x9C3 DUP2 PUSH2 0x9AE JUMP JUMPDEST DUP3 MSTORE POP POP JUMP JUMPDEST PUSH1 0x0 PUSH1 0x20 DUP3 ADD SWAP1 POP PUSH2 0x9DE PUSH1 0x0 DUP4 ADD DUP5 PUSH2 0x9BA JUMP JUMPDEST SWAP3 SWAP2 POP POP JUMP JUMPDEST PUSH1 0x0 DUP1 REVERT JUMPDEST PUSH1 0x0 PUSH20 0xFFFFFFFFFFFFFFFFFFFFFFFFFFFFFFFFFFFFFFFF DUP3 AND SWAP1 POP SWAP2 SWAP1 POP JUMP JUMPDEST PUSH1 0x0 PUSH2 0xA14 DUP3 PUSH2 0x9E9 JUMP JUMPDEST SWAP1 POP SWAP2 SWAP1 POP JUMP JUMPDEST PUSH2 0xA24 DUP2 PUSH2 0xA09 JUMP JUMPDEST DUP2 EQ PUSH2 0xA2F JUMPI PUSH1 0x0 DUP1 REVERT JUMPDEST POP JUMP JUMPDEST PUSH1 0x0 DUP2 CALLDATALOAD SWAP1 POP PUSH2 0xA41 DUP2 PUSH2 0xA1B JUMP JUMPDEST SWAP3 SWAP2 POP POP JUMP JUMPDEST PUSH1 0x0 PUSH1 0x20 DUP3 DUP5 SUB SLT ISZERO PUSH2 0xA5D JUMPI PUSH2 0xA5C PUSH2 0x9E4 JUMP JUMPDEST JUMPDEST PUSH1 0x0 PUSH2 0xA6B DUP5 DUP3 DUP6 ADD PUSH2 0xA32 JUMP JUMPDEST SWAP2 POP POP SWAP3 SWAP2 POP POP JUMP JUMPDEST PUSH1 0x0 DUP2 SWAP1 POP SWAP2 SWAP1 POP JUMP JUMPDEST PUSH2 0xA87 DUP2 PUSH2 0xA74 JUMP JUMPDEST DUP3 MSTORE POP POP JUMP JUMPDEST PUSH1 0x0 PUSH1 0x20 DUP3 ADD SWAP1 POP PUSH2 0xAA2 PUSH1 0x0 DUP4 ADD DUP5 PUSH2 0xA7E JUMP JUMPDEST SWAP3 SWAP2 POP POP JUMP JUMPDEST PUSH2 0xAB1 DUP2 PUSH2 0xA74 JUMP JUMPDEST DUP2 EQ PUSH2 0xABC JUMPI PUSH1 0x0 DUP1 REVERT JUMPDEST POP JUMP JUMPDEST PUSH1 0x0 DUP2 CALLDATALOAD SWAP1 POP PUSH2 0xACE DUP2 PUSH2 0xAA8 JUMP JUMPDEST SWAP3 SWAP2 POP POP JUMP JUMPDEST PUSH1 0x0 DUP1 PUSH1 0x40 DUP4 DUP6 SUB SLT ISZERO PUSH2 0xAEB JUMPI PUSH2 0xAEA PUSH2 0x9E4 JUMP JUMPDEST JUMPDEST PUSH1 0x0 PUSH2 0xAF9 DUP6 DUP3 DUP7 ADD PUSH2 0xABF JUMP JUMPDEST SWAP3 POP POP PUSH1 0x20 PUSH2 0xB0A DUP6 DUP3 DUP7 ADD PUSH2 0xABF JUMP JUMPDEST SWAP2 POP POP SWAP3 POP SWAP3 SWAP1 POP JUMP JUMPDEST PUSH32 0x4E487B7100000000000000000000000000000000000000000000000000000000 PUSH1 0x0 MSTORE PUSH1 0x11 PUSH1 0x4 MSTORE PUSH1 0x24 PUSH1 0x0 REVERT JUMPDEST PUSH1 0x0 PUSH2 0xB4E DUP3 PUSH2 0xA74 JUMP JUMPDEST SWAP2 POP PUSH2 0xB59 DUP4 PUSH2 0xA74 JUMP JUMPDEST SWAP3 POP DUP3 DUP3 SUB SWAP1 POP DUP2 DUP2 GT ISZERO PUSH2 0xB71 JUMPI PUSH2 0xB70 PUSH2 0xB14 JUMP JUMPDEST JUMPDEST SWAP3 SWAP2 POP POP JUMP JUMPDEST PUSH2 0xB80 DUP2 PUSH2 0xA09 JUMP JUMPDEST DUP3 MSTORE POP POP JUMP JUMPDEST PUSH1 0x0 PUSH1 0x40 DUP3 ADD SWAP1 POP PUSH2 0xB9B PUSH1 0x0 DUP4 ADD DUP6 PUSH2 0xB77 JUMP JUMPDEST PUSH2 0xBA8 PUSH1 0x20 DUP4 ADD DUP5 PUSH2 0xA7E JUMP JUMPDEST SWAP4 SWAP3 POP POP POP JUMP JUMPDEST PUSH2 0xBB8 DUP2 PUSH2 0x9AE JUMP JUMPDEST DUP2 EQ PUSH2 0xBC3 JUMPI PUSH1 0x0 DUP1 REVERT JUMPDEST POP JUMP JUMPDEST PUSH1 0x0 DUP2 MLOAD SWAP1 POP PUSH2 0xBD5 DUP2 PUSH2 0xBAF JUMP JUMPDEST SWAP3 SWAP2 POP POP JUMP JUMPDEST PUSH1 0x0 PUSH1 0x20 DUP3 DUP5 SUB SLT ISZERO PUSH2 0xBF1 JUMPI PUSH2 0xBF0 PUSH2 0x9E4 JUMP JUMPDEST JUMPDEST PUSH1 0x0 PUSH2 0xBFF DUP5 DUP3 DUP6 ADD PUSH2 0xBC6 JUMP JUMPDEST SWAP2 POP POP SWAP3 SWAP2 POP POP JUMP JUMPDEST PUSH1 0x0 DUP2 PUSH1 0x1 SHR SWAP1 POP SWAP2 SWAP1 POP JUMP JUMPDEST PUSH1 0x0 DUP1 DUP3 SWAP2 POP DUP4 SWAP1 POP JUMPDEST PUSH1 0x1 DUP6 GT ISZERO PUSH2 0xC5F JUMPI DUP1 DUP7 DIV DUP2 GT ISZERO PUSH2 0xC3B JUMPI PUSH2 0xC3A PUSH2 0xB14 JUMP JUMPDEST JUMPDEST PUSH1 0x1 DUP6 AND ISZERO PUSH2 0xC4A JUMPI DUP1 DUP3 MUL SWAP2 POP JUMPDEST DUP1 DUP2 MUL SWAP1 POP PUSH2 0xC58 DUP6 PUSH2 0xC08 JUMP JUMPDEST SWAP5 POP PUSH2 0xC1F JUMP JUMPDEST SWAP5 POP SWAP5 SWAP3 POP POP POP JUMP JUMPDEST PUSH1 0x0 DUP3 PUSH2 0xC78 JUMPI PUSH1 0x1 SWAP1 POP PUSH2 0xD34 JUMP JUMPDEST DUP2 PUSH2 0xC86 JUMPI PUSH1 0x0 SWAP1 POP PUSH2 0xD34 JUMP JUMPDEST DUP2 PUSH1 0x1 DUP2 EQ PUSH2 0xC9C JUMPI PUSH1 0x2 DUP2 EQ PUSH2 0xCA6 JUMPI PUSH2 0xCD5 JUMP JUMPDEST PUSH1 0x1 SWAP2 POP POP PUSH2 0xD34 JUMP JUMPDEST PUSH1 0xFF DUP5 GT ISZERO PUSH2 0xCB8 JUMPI PUSH2 0xCB7 PUSH2 0xB14 JUMP JUMPDEST JUMPDEST DUP4 PUSH1 0x2 EXP SWAP2 POP DUP5 DUP3 GT ISZERO PUSH2 0xCCF JUMPI PUSH2 0xCCE PUSH2 0xB14 JUMP JUMPDEST JUMPDEST POP PUSH2 0xD34 JUMP JUMPDEST POP PUSH1 0x20 DUP4 LT PUSH2 0x133 DUP4 LT AND PUSH1 0x4E DUP5 LT PUSH1 0xB DUP5 LT AND OR ISZERO PUSH2 0xD0A JUMPI DUP3 DUP3 EXP SWAP1 POP DUP4 DUP2 GT ISZERO PUSH2 0xD05 JUMPI PUSH2 0xD04 PUSH2 0xB14 JUMP JUMPDEST JUMPDEST PUSH2 0xD34 JUMP JUMPDEST PUSH2 0xD17 DUP5 DUP5 DUP5 PUSH1 0x1 PUSH2 0xC15 JUMP JUMPDEST SWAP3 POP SWAP1 POP DUP2 DUP5 DIV DUP2 GT ISZERO PUSH2 0xD2E JUMPI PUSH2 0xD2D PUSH2 0xB14 JUMP JUMPDEST JUMPDEST DUP2 DUP2 MUL SWAP1 POP JUMPDEST SWAP4 SWAP3 POP POP POP JUMP JUMPDEST PUSH1 0x0 PUSH1 0xFF DUP3 AND SWAP1 POP SWAP2 SWAP1 POP JUMP JUMPDEST PUSH1 0x0 PUSH2 0xD53 DUP3 PUSH2 0xA74 JUMP JUMPDEST SWAP2 POP PUSH2 0xD5E DUP4 PUSH2 0xD3B JUMP JUMPDEST SWAP3 POP PUSH2 0xD8B PUSH32 0xFFFFFFFFFFFFFFFFFFFFFFFFFFFFFFFFFFFFFFFFFFFFFFFFFFFFFFFFFFFFFFFF DUP5 DUP5 PUSH2 0xC68 JUMP JUMPDEST SWAP1 POP SWAP3 SWAP2 POP POP JUMP JUMPDEST PUSH1 0x0 PUSH2 0xD9E DUP3 PUSH2 0xA74 JUMP JUMPDEST SWAP2 POP PUSH2 0xDA9 DUP4 PUSH2 0xA74 JUMP JUMPDEST SWAP3 POP DUP3 DUP3 MUL PUSH2 0xDB7 DUP2 PUSH2 0xA74 JUMP JUMPDEST SWAP2 POP DUP3 DUP3 DIV DUP5 EQ DUP4 ISZERO OR PUSH2 0xDCE JUMPI PUSH2 0xDCD PUSH2 0xB14 JUMP JUMPDEST JUMPDEST POP SWAP3 SWAP2 POP POP JUMP JUMPDEST PUSH32 0x4E487B7100000000000000000000000000000000000000000000000000000000 PUSH1 0x0 MSTORE PUSH1 0x12 PUSH1 0x4 MSTORE PUSH1 0x24 PUSH1 0x0 REVERT JUMPDEST PUSH1 0x0 PUSH2 0xE0F DUP3 PUSH2 0xA74 JUMP JUMPDEST SWAP2 POP PUSH2 0xE1A DUP4 PUSH2 0xA74 JUMP JUMPDEST SWAP3 POP DUP3 PUSH2 0xE2A JUMPI PUSH2 0xE29 PUSH2 0xDD5 JUMP JUMPDEST JUMPDEST DUP3 DUP3 DIV SWAP1 POP SWAP3 SWAP2 POP POP JUMP JUMPDEST PUSH1 0x0 PUSH1 0x60 DUP3 ADD SWAP1 POP PUSH2 0xE4A PUSH1 0x0 DUP4 ADD DUP7 PUSH2 0xB77 JUMP JUMPDEST PUSH2 0xE57 PUSH1 0x20 DUP4 ADD DUP6 PUSH2 0xB77 JUMP JUMPDEST PUSH2 0xE64 PUSH1 0x40 DUP4 ADD DUP5 PUSH2 0xA7E JUMP JUMPDEST SWAP5 SWAP4 POP POP POP POP JUMP JUMPDEST PUSH1 0x0 PUSH2 0xE77 DUP3 PUSH2 0xA74 JUMP JUMPDEST SWAP2 POP PUSH2 0xE82 DUP4 PUSH2 0xA74 JUMP JUMPDEST SWAP3 POP DUP3 DUP3 ADD SWAP1 POP DUP1 DUP3 GT ISZERO PUSH2 0xE9A JUMPI PUSH2 0xE99 PUSH2 0xB14 JUMP JUMPDEST JUMPDEST SWAP3 SWAP2 POP POP JUMP INVALID LOG2 PUSH5 0x6970667358 0x22 SLT KECCAK256 EXTCODESIZE PUSH25 0xFF4FDB37929A40DA607FE204C42CDA9190EA67333490BB65F4 CREATE2 0x28 DUP9 LOG2 0x2F PUSH5 0x736F6C6343 STOP ADDMOD XOR STOP CALLER "
        },
        "methodIdentifiers": {
          "calculateRewards(address)": "64ab8675",
          "claimReward()": "b88a802f",
          "stake(uint256,uint256)": "7b0472f0",
          "unstake()": "2def6620"
        }
      }
    }
  }
}